{
  "contractName": "Bridge",
  "abi": [
    {
      "inputs": [],
      "stateMutability": "nonpayable",
      "type": "constructor"
    },
    {
      "anonymous": false,
      "inputs": [
        {
          "indexed": false,
          "internalType": "address",
          "name": "",
          "type": "address"
        },
        {
          "indexed": false,
          "internalType": "uint256",
          "name": "",
          "type": "uint256"
        }
      ],
      "name": "Received",
      "type": "event"
    },
    {
      "anonymous": false,
      "inputs": [
        {
          "indexed": false,
          "internalType": "address",
          "name": "fromTokenAddress",
          "type": "address"
        },
        {
          "indexed": false,
          "internalType": "address",
          "name": "toTokenAddress",
          "type": "address"
        },
        {
          "indexed": false,
          "internalType": "address",
          "name": "owner",
          "type": "address"
        },
        {
          "indexed": false,
          "internalType": "uint256",
          "name": "fromChain",
          "type": "uint256"
        },
        {
          "indexed": false,
          "internalType": "uint256",
          "name": "toChain",
          "type": "uint256"
        },
        {
          "indexed": false,
          "internalType": "uint256",
          "name": "amount",
          "type": "uint256"
        },
        {
          "indexed": false,
          "internalType": "string",
          "name": "step",
          "type": "string"
        },
        {
          "indexed": false,
          "internalType": "uint256",
          "name": "nonce",
          "type": "uint256"
        }
      ],
      "name": "Transfer",
      "type": "event"
    },
    {
      "inputs": [],
      "name": "admin",
      "outputs": [
        {
          "internalType": "address",
          "name": "",
          "type": "address"
        }
      ],
      "stateMutability": "view",
      "type": "function",
      "constant": true
    },
    {
      "inputs": [],
      "name": "nonce",
      "outputs": [
        {
          "internalType": "uint256",
          "name": "",
          "type": "uint256"
        }
      ],
      "stateMutability": "view",
      "type": "function",
      "constant": true
    },
    {
      "inputs": [
        {
          "internalType": "uint256",
          "name": "",
          "type": "uint256"
        },
        {
          "internalType": "uint256",
          "name": "",
          "type": "uint256"
        }
      ],
      "name": "processedNonces",
      "outputs": [
        {
          "internalType": "bool",
          "name": "",
          "type": "bool"
        }
      ],
      "stateMutability": "view",
      "type": "function",
      "constant": true
    },
    {
      "stateMutability": "payable",
      "type": "receive",
      "payable": true
    },
    {
      "inputs": [
        {
          "internalType": "address",
          "name": "fromTokenAddress",
          "type": "address"
        },
        {
          "internalType": "address",
          "name": "toTokenAddress",
          "type": "address"
        },
        {
          "internalType": "address",
          "name": "owner",
          "type": "address"
        },
        {
          "internalType": "uint256",
          "name": "fromChain",
          "type": "uint256"
        },
        {
          "internalType": "uint256",
          "name": "toChain",
          "type": "uint256"
        },
        {
          "internalType": "uint256",
          "name": "amount",
          "type": "uint256"
        }
      ],
      "name": "depositERC20",
      "outputs": [],
      "stateMutability": "nonpayable",
      "type": "function"
    },
    {
      "inputs": [
        {
          "internalType": "address",
          "name": "fromTokenAddress",
          "type": "address"
        },
        {
          "internalType": "address",
          "name": "toTokenAddress",
          "type": "address"
        },
        {
          "internalType": "address",
          "name": "owner",
          "type": "address"
        },
        {
          "internalType": "uint256",
          "name": "fromChain",
          "type": "uint256"
        },
        {
          "internalType": "uint256",
          "name": "toChain",
          "type": "uint256"
        },
        {
          "internalType": "uint256",
          "name": "amount",
          "type": "uint256"
        }
      ],
      "name": "depositEth",
      "outputs": [],
      "stateMutability": "payable",
      "type": "function",
      "payable": true
    },
    {
      "inputs": [
        {
          "internalType": "address",
          "name": "fromTokenAddress",
          "type": "address"
        },
        {
          "internalType": "address",
          "name": "toTokenAddress",
          "type": "address"
        },
        {
          "internalType": "address",
          "name": "owner",
          "type": "address"
        },
        {
          "internalType": "uint256",
          "name": "fromChain",
          "type": "uint256"
        },
        {
          "internalType": "uint256",
          "name": "toChain",
          "type": "uint256"
        },
        {
          "internalType": "uint256",
          "name": "amount",
          "type": "uint256"
        },
        {
          "internalType": "uint256",
          "name": "otherChainNonce",
          "type": "uint256"
        }
      ],
      "name": "withdrawERC20",
      "outputs": [],
      "stateMutability": "nonpayable",
      "type": "function"
    },
    {
      "inputs": [
        {
          "internalType": "address",
          "name": "fromTokenAddress",
          "type": "address"
        },
        {
          "internalType": "address",
          "name": "toTokenAddress",
          "type": "address"
        },
        {
          "internalType": "address payable",
          "name": "owner",
          "type": "address"
        },
        {
          "internalType": "uint256",
          "name": "fromChain",
          "type": "uint256"
        },
        {
          "internalType": "uint256",
          "name": "toChain",
          "type": "uint256"
        },
        {
          "internalType": "uint256",
          "name": "amount",
          "type": "uint256"
        },
        {
          "internalType": "uint256",
          "name": "otherChainNonce",
          "type": "uint256"
        }
      ],
      "name": "withdrawEth",
      "outputs": [],
      "stateMutability": "nonpayable",
      "type": "function"
    },
    {
      "inputs": [
        {
          "internalType": "address",
          "name": "fromTokenAddress",
          "type": "address"
        },
        {
          "internalType": "address",
          "name": "toTokenAddress",
          "type": "address"
        },
        {
          "internalType": "address",
          "name": "owner",
          "type": "address"
        },
        {
          "internalType": "uint256",
          "name": "fromChain",
          "type": "uint256"
        },
        {
          "internalType": "uint256",
          "name": "toChain",
          "type": "uint256"
        },
        {
          "internalType": "uint256",
          "name": "amount",
          "type": "uint256"
        }
      ],
      "name": "burn",
      "outputs": [],
      "stateMutability": "nonpayable",
      "type": "function"
    },
    {
      "inputs": [
        {
          "internalType": "address",
          "name": "fromTokenAddress",
          "type": "address"
        },
        {
          "internalType": "address",
          "name": "toTokenAddress",
          "type": "address"
        },
        {
          "internalType": "address",
          "name": "owner",
          "type": "address"
        },
        {
          "internalType": "uint256",
          "name": "fromChain",
          "type": "uint256"
        },
        {
          "internalType": "uint256",
          "name": "toChain",
          "type": "uint256"
        },
        {
          "internalType": "uint256",
          "name": "amount",
          "type": "uint256"
        },
        {
          "internalType": "uint256",
          "name": "otherChainNonce",
          "type": "uint256"
        }
      ],
      "name": "mint",
      "outputs": [],
      "stateMutability": "nonpayable",
      "type": "function"
    }
  ],
  "bytecode": "0x608060405234801561001057600080fd5b5033600260006101000a81548173ffffffffffffffffffffffffffffffffffffffff021916908373ffffffffffffffffffffffffffffffffffffffff1602179055506117af806100616000396000f3fe60806040526004361061008a5760003560e01c80639534c75a116100595780639534c75a14610166578063a7954f451461018f578063affed0e0146101b8578063d3838ba0146101e3578063f851a44014610220576100ca565b8063396e2599146100cf5780635f3565ef146100f85780637c96bfb4146101215780639144d58d1461013d576100ca565b366100ca577f88a5966d370b9919b20f3e2c13ff65706f196a4e32cc2c12bf57088f8852587433346040516100c092919061147b565b60405180910390a1005b600080fd5b3480156100db57600080fd5b506100f660048036038101906100f19190610e02565b61024b565b005b34801561010457600080fd5b5061011f600480360381019061011a9190610f29565b61046a565b005b61013b60048036038101906101369190610ea0565b610750565b005b34801561014957600080fd5b50610164600480360381019061015f9190610ea0565b61080a565b005b34801561017257600080fd5b5061018d60048036038101906101889190610ea0565b610a64565b005b34801561019b57600080fd5b506101b660048036038101906101b19190610f29565b610b3b565b005b3480156101c457600080fd5b506101cd610d3e565b6040516101da919061155f565b60405180910390f35b3480156101ef57600080fd5b5061020a60048036038101906102059190611019565b610d44565b60405161021791906114a4565b60405180910390f35b34801561022c57600080fd5b50610235610d73565b6040516102429190611277565b60405180910390f35b81600460008773ffffffffffffffffffffffffffffffffffffffff1673ffffffffffffffffffffffffffffffffffffffff1681526020019081526020016000205410156102cd576040517f08c379a00000000000000000000000000000000000000000000000000000000081526004016102c49061151f565b60405180910390fd5b6000151560016000868152602001908152602001600020600083815260200190815260200160002060009054906101000a900460ff16151514610345576040517f08c379a000000000000000000000000000000000000000000000000000000000815260040161033c9061153f565b60405180910390fd5b6001806000868152602001908152602001600020600083815260200190815260200160002060006101000a81548160ff02191690831515021790555081600460008773ffffffffffffffffffffffffffffffffffffffff1673ffffffffffffffffffffffffffffffffffffffff16815260200190815260200160002060008282546103d091906115e1565b925050819055508473ffffffffffffffffffffffffffffffffffffffff166108fc839081150290604051600060405180830381858888f1935050505015801561041d573d6000803e3d6000fd5b507f8bebaff2451629286224145b8b387a8e96bb4c003fd4e7f185f5d29325c00d788787878787878760405161045997969594939291906112bb565b60405180910390a150505050505050565b81600360008773ffffffffffffffffffffffffffffffffffffffff1673ffffffffffffffffffffffffffffffffffffffff16815260200190815260200160002060008873ffffffffffffffffffffffffffffffffffffffff1673ffffffffffffffffffffffffffffffffffffffff168152602001908152602001600020541015610529576040517f08c379a0000000000000000000000000000000000000000000000000000000008152600401610520906114df565b60405180910390fd5b6000151560016000868152602001908152602001600020600083815260200190815260200160002060009054906101000a900460ff161515146105a1576040517f08c379a00000000000000000000000000000000000000000000000000000000081526004016105989061153f565b60405180910390fd5b6001806000868152602001908152602001600020600083815260200190815260200160002060006101000a81548160ff02191690831515021790555081600360008773ffffffffffffffffffffffffffffffffffffffff1673ffffffffffffffffffffffffffffffffffffffff16815260200190815260200160002060008873ffffffffffffffffffffffffffffffffffffffff1673ffffffffffffffffffffffffffffffffffffffff168152602001908152602001600020600082825461066991906115e1565b9250508190555060008690508073ffffffffffffffffffffffffffffffffffffffff1663a9059cbb87856040518363ffffffff1660e01b81526004016106b092919061147b565b602060405180830381600087803b1580156106ca57600080fd5b505af11580156106de573d6000803e3d6000fd5b505050506040513d601f19601f820116820180604052508101906107029190610fc7565b507f8bebaff2451629286224145b8b387a8e96bb4c003fd4e7f185f5d29325c00d788888888888888860405161073e979695949392919061133e565b60405180910390a15050505050505050565b34600460003373ffffffffffffffffffffffffffffffffffffffff1673ffffffffffffffffffffffffffffffffffffffff168152602001908152602001600020600082825461079f919061158b565b925050819055507f8bebaff2451629286224145b8b387a8e96bb4c003fd4e7f185f5d29325c00d788686868686866000546040516107e397969594939291906113c1565b60405180910390a16000808154809291906107fd906116a5565b9190505550505050505050565b6000869050818173ffffffffffffffffffffffffffffffffffffffff1663dd62ed3e33306040518363ffffffff1660e01b815260040161084b929190611292565b60206040518083038186803b15801561086357600080fd5b505afa158015610877573d6000803e3d6000fd5b505050506040513d601f19601f8201168201806040525081019061089b9190610ff0565b10156108dc576040517f08c379a00000000000000000000000000000000000000000000000000000000081526004016108d3906114bf565b60405180910390fd5b8073ffffffffffffffffffffffffffffffffffffffff166323b872dd3330856040518463ffffffff1660e01b815260040161091993929190611444565b602060405180830381600087803b15801561093357600080fd5b505af1158015610947573d6000803e3d6000fd5b505050506040513d601f19601f8201168201806040525081019061096b9190610fc7565b5081600360003373ffffffffffffffffffffffffffffffffffffffff1673ffffffffffffffffffffffffffffffffffffffff16815260200190815260200160002060008973ffffffffffffffffffffffffffffffffffffffff1673ffffffffffffffffffffffffffffffffffffffff16815260200190815260200160002060008282546109f8919061158b565b925050819055507f8bebaff2451629286224145b8b387a8e96bb4c003fd4e7f185f5d29325c00d78878787878787600054604051610a3c97969594939291906113c1565b60405180910390a1600080815480929190610a56906116a5565b919050555050505050505050565b60008690508073ffffffffffffffffffffffffffffffffffffffff16639dc29fac86846040518363ffffffff1660e01b8152600401610aa492919061147b565b600060405180830381600087803b158015610abe57600080fd5b505af1158015610ad2573d6000803e3d6000fd5b505050507f8bebaff2451629286224145b8b387a8e96bb4c003fd4e7f185f5d29325c00d78878787878787600054604051610b1397969594939291906113c1565b60405180910390a1600080815480929190610b2d906116a5565b919050555050505050505050565b600260009054906101000a900473ffffffffffffffffffffffffffffffffffffffff1673ffffffffffffffffffffffffffffffffffffffff163373ffffffffffffffffffffffffffffffffffffffff1614610bcb576040517f08c379a0000000000000000000000000000000000000000000000000000000008152600401610bc2906114ff565b60405180910390fd5b6000151560016000868152602001908152602001600020600083815260200190815260200160002060009054906101000a900460ff16151514610c43576040517f08c379a0000000000000000000000000000000000000000000000000000000008152600401610c3a9061153f565b60405180910390fd5b6001806000868152602001908152602001600020600083815260200190815260200160002060006101000a81548160ff02191690831515021790555060008690508073ffffffffffffffffffffffffffffffffffffffff166340c10f1987856040518363ffffffff1660e01b8152600401610cbf92919061147b565b600060405180830381600087803b158015610cd957600080fd5b505af1158015610ced573d6000803e3d6000fd5b505050507f8bebaff2451629286224145b8b387a8e96bb4c003fd4e7f185f5d29325c00d7888888888888888604051610d2c979695949392919061133e565b60405180910390a15050505050505050565b60005481565b60016020528160005260406000206020528060005260406000206000915091509054906101000a900460ff1681565b600260009054906101000a900473ffffffffffffffffffffffffffffffffffffffff1681565b600081359050610da88161171d565b92915050565b600081359050610dbd81611734565b92915050565b600081519050610dd28161174b565b92915050565b600081359050610de781611762565b92915050565b600081519050610dfc81611762565b92915050565b600080600080600080600060e0888a031215610e1d57600080fd5b6000610e2b8a828b01610d99565b9750506020610e3c8a828b01610d99565b9650506040610e4d8a828b01610dae565b9550506060610e5e8a828b01610dd8565b9450506080610e6f8a828b01610dd8565b93505060a0610e808a828b01610dd8565b92505060c0610e918a828b01610dd8565b91505092959891949750929550565b60008060008060008060c08789031215610eb957600080fd5b6000610ec789828a01610d99565b9650506020610ed889828a01610d99565b9550506040610ee989828a01610d99565b9450506060610efa89828a01610dd8565b9350506080610f0b89828a01610dd8565b92505060a0610f1c89828a01610dd8565b9150509295509295509295565b600080600080600080600060e0888a031215610f4457600080fd5b6000610f528a828b01610d99565b9750506020610f638a828b01610d99565b9650506040610f748a828b01610d99565b9550506060610f858a828b01610dd8565b9450506080610f968a828b01610dd8565b93505060a0610fa78a828b01610dd8565b92505060c0610fb88a828b01610dd8565b91505092959891949750929550565b600060208284031215610fd957600080fd5b6000610fe784828501610dc3565b91505092915050565b60006020828403121561100257600080fd5b600061101084828501610ded565b91505092915050565b6000806040838503121561102c57600080fd5b600061103a85828601610dd8565b925050602061104b85828601610dd8565b9150509250929050565b61105e8161166f565b82525050565b61106d81611615565b82525050565b61107c81611639565b82525050565b600061108f60248361157a565b91507f427269646765636f6e74726163742068617320746f6f206c6f7720616c6c6f7760008301527f616e6365000000000000000000000000000000000000000000000000000000006020830152604082019050919050565b60006110f560148361157a565b91507f546f6b656e62616c616e636520746f6f206c6f770000000000000000000000006000830152602082019050919050565b600061113560158361157a565b91507f6f6e6c792061646d696e20666f722062726964676500000000000000000000006000830152602082019050919050565b600061117560128361157a565b91507f45746862616c616e636520746f6f206c6f7700000000000000000000000000006000830152602082019050919050565b60006111b5601a8361157a565b91507f7472616e7366657220616c72656164792070726f6365737365640000000000006000830152602082019050919050565b60006111f560048361157a565b91507f6d696e74000000000000000000000000000000000000000000000000000000006000830152602082019050919050565b600061123560048361157a565b91507f6275726e000000000000000000000000000000000000000000000000000000006000830152602082019050919050565b61127181611665565b82525050565b600060208201905061128c6000830184611064565b92915050565b60006040820190506112a76000830185611064565b6112b46020830184611064565b9392505050565b6000610100820190506112d1600083018a611064565b6112de6020830189611064565b6112eb6040830188611055565b6112f86060830187611268565b6113056080830186611268565b61131260a0830185611268565b81810360c0830152611323816111e8565b905061133260e0830184611268565b98975050505050505050565b600061010082019050611354600083018a611064565b6113616020830189611064565b61136e6040830188611064565b61137b6060830187611268565b6113886080830186611268565b61139560a0830185611268565b81810360c08301526113a6816111e8565b90506113b560e0830184611268565b98975050505050505050565b6000610100820190506113d7600083018a611064565b6113e46020830189611064565b6113f16040830188611064565b6113fe6060830187611268565b61140b6080830186611268565b61141860a0830185611268565b81810360c083015261142981611228565b905061143860e0830184611268565b98975050505050505050565b60006060820190506114596000830186611064565b6114666020830185611064565b6114736040830184611268565b949350505050565b60006040820190506114906000830185611064565b61149d6020830184611268565b9392505050565b60006020820190506114b96000830184611073565b92915050565b600060208201905081810360008301526114d881611082565b9050919050565b600060208201905081810360008301526114f8816110e8565b9050919050565b6000602082019050818103600083015261151881611128565b9050919050565b6000602082019050818103600083015261153881611168565b9050919050565b60006020820190508181036000830152611558816111a8565b9050919050565b60006020820190506115746000830184611268565b92915050565b600082825260208201905092915050565b600061159682611665565b91506115a183611665565b9250827fffffffffffffffffffffffffffffffffffffffffffffffffffffffffffffffff038211156115d6576115d56116ee565b5b828201905092915050565b60006115ec82611665565b91506115f783611665565b92508282101561160a576116096116ee565b5b828203905092915050565b600061162082611645565b9050919050565b600061163282611645565b9050919050565b60008115159050919050565b600073ffffffffffffffffffffffffffffffffffffffff82169050919050565b6000819050919050565b600061167a82611681565b9050919050565b600061168c82611693565b9050919050565b600061169e82611645565b9050919050565b60006116b082611665565b91507fffffffffffffffffffffffffffffffffffffffffffffffffffffffffffffffff8214156116e3576116e26116ee565b5b600182019050919050565b7f4e487b7100000000000000000000000000000000000000000000000000000000600052601160045260246000fd5b61172681611615565b811461173157600080fd5b50565b61173d81611627565b811461174857600080fd5b50565b61175481611639565b811461175f57600080fd5b50565b61176b81611665565b811461177657600080fd5b5056fea2646970667358221220a64a517717a39b3e55747c880095a546d4c6ab032f0740f6639d3bbe5dfe511364736f6c63430008000033",
  "immutableReferences": {},
  "source": "pragma solidity >=0.6.0 <0.9.0;\r\n\r\nimport \"../node_modules/@openzeppelin/contracts/token/ERC20/ERC20.sol\";\r\nimport \"./IToken.sol\"; \r\n\r\ncontract Bridge {\r\n\r\n    uint256 public nonce;\r\n    //mapping ChainId => Nonce => Bool\r\n    mapping(uint256 => mapping(uint256 => bool)) public processedNonces;\r\n    address public admin;\r\n    \r\n    //mapping Useraddress => Tokenaddress => Tokenbalance\r\n    mapping(address => mapping(address => uint256)) tokenBalance;\r\n    \r\n    //mapping Useraddress => Ethbalance\r\n    mapping(address => uint256) ethBalance;\r\n\r\n    event Transfer(address fromTokenAddress, address toTokenAddress, address owner, uint256 fromChain, uint256 toChain, uint256 amount, string step, uint256 nonce);\r\n    event Received(address, uint);\r\n\r\n    constructor() {\r\n        admin = msg.sender;\r\n    }  \r\n\r\n    function depositERC20(address fromTokenAddress, address toTokenAddress, address owner, uint256 fromChain, uint256 toChain, uint256 amount) public {\r\n        IToken token = IToken(fromTokenAddress);\r\n        require(token.allowance(msg.sender, address(this)) >= amount, \"Bridgecontract has too low allowance\");\r\n        token.transferFrom(msg.sender, address(this), amount);\r\n        tokenBalance[msg.sender][fromTokenAddress] += amount;\r\n        emit Transfer(fromTokenAddress, toTokenAddress, owner, fromChain, toChain, amount, \"burn\", nonce);\r\n        nonce++; \r\n    }\r\n    \r\n    function depositEth(address fromTokenAddress, address toTokenAddress, address owner, uint256 fromChain, uint256 toChain, uint256 amount) public payable {\r\n        ethBalance[msg.sender] += msg.value;\r\n        emit Transfer(fromTokenAddress, toTokenAddress, owner, fromChain, toChain, amount, \"burn\", nonce);\r\n        nonce++; \r\n    }\r\n\r\n    function withdrawERC20(address fromTokenAddress, address toTokenAddress, address owner, uint256 fromChain, uint256 toChain, uint256 amount, uint256 otherChainNonce) public {\r\n        require(tokenBalance[owner][toTokenAddress] >= amount, \"Tokenbalance too low\");\r\n        require(processedNonces[fromChain][otherChainNonce] == false, 'transfer already processed');\r\n        processedNonces[fromChain][otherChainNonce] = true;\r\n        tokenBalance[owner][toTokenAddress] -= amount;\r\n        IToken token = IToken(toTokenAddress);\r\n        token.transfer(owner, amount);\r\n        emit Transfer(fromTokenAddress, toTokenAddress, owner, fromChain, toChain, amount, \"mint\", otherChainNonce);\r\n    }\r\n\r\n    function withdrawEth(address fromTokenAddress, address toTokenAddress, address payable owner, uint256 fromChain, uint256 toChain, uint256 amount, uint256 otherChainNonce) public {\r\n        require(ethBalance[owner] >= amount, \"Ethbalance too low\");\r\n        require(processedNonces[fromChain][otherChainNonce] == false, 'transfer already processed');\r\n        processedNonces[fromChain][otherChainNonce] = true;\r\n        ethBalance[owner] -= amount;\r\n        owner.transfer(amount);\r\n        emit Transfer(fromTokenAddress, toTokenAddress, owner, fromChain, toChain, amount, \"mint\", otherChainNonce);\r\n    }\r\n\r\n    function burn(address fromTokenAddress, address toTokenAddress, address owner, uint256 fromChain, uint256 toChain, uint256 amount) public virtual {\r\n        IToken token = IToken(fromTokenAddress);\r\n        token.burn(owner, amount);\r\n        emit Transfer(fromTokenAddress, toTokenAddress, owner, fromChain, toChain, amount, \"burn\", nonce);\r\n        nonce++;\r\n    }\r\n\r\n    function mint(address fromTokenAddress, address toTokenAddress, address owner, uint256 fromChain, uint256 toChain, uint256 amount, uint256 otherChainNonce) public virtual {\r\n        require(msg.sender == admin, 'only admin for bridge');\r\n        require(processedNonces[fromChain][otherChainNonce] == false, 'transfer already processed');\r\n        processedNonces[fromChain][otherChainNonce] = true;\r\n        IToken token = IToken(toTokenAddress);\r\n        token.mint(owner, amount);\r\n        emit Transfer(fromTokenAddress, toTokenAddress, owner, fromChain, toChain, amount, \"mint\", otherChainNonce);\r\n    }\r\n\r\n    receive() external payable {\r\n        emit Received(msg.sender, msg.value);\r\n    }\r\n}",
  "sourcePath": "D:\\Programming\\Ethereum\\TokenBridge\\BlockchainPart\\contracts\\bridge.sol",
  "compiler": {
    "name": "solc",
    "version": "0.8.0+commit.c7dfd78e.Emscripten.clang"
  },
  "schemaVersion": "3.4.3",
  "updatedAt": "2021-10-06T11:35:14.031Z",
  "networkType": "ethereum",
  "devdoc": {
    "kind": "dev",
    "methods": {},
    "version": 1
  },
  "userdoc": {
    "kind": "user",
    "methods": {},
    "version": 1
  }
}