{
  "contractName": "Faucet",
  "abi": [
    {
      "inputs": [
        {
          "internalType": "address",
          "name": "tokenAddress",
          "type": "address"
        },
        {
          "internalType": "address",
          "name": "tokenReceiver",
          "type": "address"
        }
      ],
      "name": "requestToken",
      "outputs": [],
      "stateMutability": "nonpayable",
      "type": "function"
    }
  ],
  "bytecode": "0x608060405234801561001057600080fd5b50610611806100206000396000f3fe608060405234801561001057600080fd5b506004361061002b5760003560e01c80637f2e06e314610030575b600080fd5b61004a60048036038101906100459190610318565b61004c565b005b6000829050670de0b6b3a76400008173ffffffffffffffffffffffffffffffffffffffff166370a08231306040518263ffffffff1660e01b81526004016100939190610444565b60206040518083038186803b1580156100ab57600080fd5b505afa1580156100bf573d6000803e3d6000fd5b505050506040513d601f19601f820116820180604052508101906100e3919061037d565b1015610124576040517f08c379a000000000000000000000000000000000000000000000000000000000815260040161011b90610488565b60405180910390fd5b60008060008473ffffffffffffffffffffffffffffffffffffffff1673ffffffffffffffffffffffffffffffffffffffff1681526020019081526020016000205414806101bc57506000808373ffffffffffffffffffffffffffffffffffffffff1673ffffffffffffffffffffffffffffffffffffffff1681526020019081526020016000205462015180426101ba91906104d9565b115b6101fb576040517f08c379a00000000000000000000000000000000000000000000000000000000081526004016101f2906104a8565b60405180910390fd5b426000808473ffffffffffffffffffffffffffffffffffffffff1673ffffffffffffffffffffffffffffffffffffffff168152602001908152602001600020819055508073ffffffffffffffffffffffffffffffffffffffff1663a9059cbb83670de0b6b3a76400006040518363ffffffff1660e01b815260040161028192919061045f565b602060405180830381600087803b15801561029b57600080fd5b505af11580156102af573d6000803e3d6000fd5b505050506040513d601f19601f820116820180604052508101906102d39190610354565b50505050565b6000813590506102e881610596565b92915050565b6000815190506102fd816105ad565b92915050565b600081519050610312816105c4565b92915050565b6000806040838503121561032b57600080fd5b6000610339858286016102d9565b925050602061034a858286016102d9565b9150509250929050565b60006020828403121561036657600080fd5b6000610374848285016102ee565b91505092915050565b60006020828403121561038f57600080fd5b600061039d84828501610303565b91505092915050565b6103af8161050d565b82525050565b6103be81610555565b82525050565b60006103d1601e836104c8565b91507f6e6f7420656e6f75676820746f6b656e20696e207468652066617563657400006000830152602082019050919050565b60006104116015836104c8565b91507f6f6e6c79206f6e636520696e20323420686f75727300000000000000000000006000830152602082019050919050565b600060208201905061045960008301846103a6565b92915050565b600060408201905061047460008301856103a6565b61048160208301846103b5565b9392505050565b600060208201905081810360008301526104a1816103c4565b9050919050565b600060208201905081810360008301526104c181610404565b9050919050565b600082825260208201905092915050565b60006104e48261054b565b91506104ef8361054b565b92508282101561050257610501610567565b5b828203905092915050565b60006105188261052b565b9050919050565b60008115159050919050565b600073ffffffffffffffffffffffffffffffffffffffff82169050919050565b6000819050919050565b60006105608261054b565b9050919050565b7f4e487b7100000000000000000000000000000000000000000000000000000000600052601160045260246000fd5b61059f8161050d565b81146105aa57600080fd5b50565b6105b68161051f565b81146105c157600080fd5b50565b6105cd8161054b565b81146105d857600080fd5b5056fea2646970667358221220a8878485c47e11c80a37599b4e2dd97469ecd53d843ba9f9941523d2a248427764736f6c63430008000033",
  "immutableReferences": {},
  "source": "pragma solidity 0.8.0;\r\n\r\nimport \"../node_modules/@openzeppelin/contracts/token/ERC20/IERC20.sol\"; \r\n\r\ncontract Faucet {\r\n\r\n    mapping(address => uint256) lastRequest;\r\n\r\n    function requestToken(address tokenAddress, address tokenReceiver) public virtual {\r\n        IERC20 token = IERC20(tokenAddress);\r\n        require(token.balanceOf(address(this)) >= 1000000000000000000, 'not enough token in the faucet');\r\n        require(lastRequest[tokenReceiver] == 0 || block.timestamp - 24 * 1 hours > lastRequest[tokenReceiver], \"only once in 24 hours\");\r\n        lastRequest[tokenReceiver] = block.timestamp; \r\n        token.transfer(tokenReceiver, 1000000000000000000);\r\n    }\r\n}",
  "sourcePath": "D:\\Programming\\Ethereum\\TokenBridge\\BlockchainPart\\contracts\\faucet.sol",
  "compiler": {
    "name": "solc",
    "version": "0.8.0+commit.c7dfd78e.Emscripten.clang"
  },
  "schemaVersion": "3.4.3",
  "updatedAt": "2021-10-06T11:35:14.041Z",
  "networkType": "ethereum",
  "devdoc": {
    "kind": "dev",
    "methods": {},
    "version": 1
  },
  "userdoc": {
    "kind": "user",
    "methods": {},
    "version": 1
  }
}